{
  "contractName": "Authentication",
  "abi": [
    {
      "anonymous": false,
      "inputs": [
        {
          "indexed": true,
          "internalType": "address",
          "name": "_address",
          "type": "address"
        },
        {
          "indexed": false,
          "internalType": "bytes32",
          "name": "_name",
          "type": "bytes32"
        },
        {
          "indexed": false,
          "internalType": "uint256",
          "name": "_created_at",
          "type": "uint256"
        }
      ],
      "name": "UserCreated",
      "type": "event"
    },
    {
      "anonymous": false,
      "inputs": [
        {
          "indexed": true,
          "internalType": "address",
          "name": "_address",
          "type": "address"
        }
      ],
      "name": "UserDeleted",
      "type": "event"
    },
    {
      "anonymous": false,
      "inputs": [
        {
          "indexed": true,
          "internalType": "address",
          "name": "_address",
          "type": "address"
        },
        {
          "indexed": false,
          "internalType": "bytes32",
          "name": "_name",
          "type": "bytes32"
        }
      ],
      "name": "UserUpdated",
      "type": "event"
    },
    {
      "inputs": [
        {
          "internalType": "uint256",
          "name": "",
          "type": "uint256"
        }
      ],
      "name": "registered",
      "outputs": [
        {
          "internalType": "address",
          "name": "",
          "type": "address"
        }
      ],
      "stateMutability": "view",
      "type": "function",
      "constant": true
    },
    {
      "inputs": [],
      "name": "login",
      "outputs": [
        {
          "internalType": "bytes32",
          "name": "",
          "type": "bytes32"
        }
      ],
      "stateMutability": "view",
      "type": "function",
      "constant": true
    },
    {
      "inputs": [
        {
          "internalType": "bytes32",
          "name": "name",
          "type": "bytes32"
        }
      ],
      "name": "signUp",
      "outputs": [
        {
          "internalType": "bytes32",
          "name": "",
          "type": "bytes32"
        }
      ],
      "stateMutability": "payable",
      "type": "function",
      "payable": true
    },
    {
      "inputs": [
        {
          "internalType": "bytes32",
          "name": "name",
          "type": "bytes32"
        }
      ],
      "name": "update",
      "outputs": [
        {
          "internalType": "bytes32",
          "name": "",
          "type": "bytes32"
        }
      ],
      "stateMutability": "payable",
      "type": "function",
      "payable": true
    },
    {
      "inputs": [],
      "name": "getRegisteredCount",
      "outputs": [
        {
          "internalType": "uint256",
          "name": "usersCount",
          "type": "uint256"
        }
      ],
      "stateMutability": "view",
      "type": "function",
      "constant": true
    }
  ],
  "bytecode": "0x608060405234801561001057600080fd5b50610976806100206000396000f3fe60806040526004361061004a5760003560e01c806386a699351461004f5780638b1472451461007a578063b34e97e8146100aa578063e660f3dd146100d5578063e6cf134614610105575b600080fd5b34801561005b57600080fd5b50610064610142565b604051610071919061084e565b60405180910390f35b610094600480360381019061008f91906106ea565b61014f565b6040516100a191906107ca565b60405180910390f35b3480156100b657600080fd5b506100bf610349565b6040516100cc91906107ca565b60405180910390f35b6100ef60048036038101906100ea91906106ea565b610419565b6040516100fc91906107ca565b60405180910390f35b34801561011157600080fd5b5061012c60048036038101906101279190610713565b610681565b60405161013991906107af565b60405180910390f35b6000600180549050905090565b6000816000801b811415610198576040517f08c379a000000000000000000000000000000000000000000000000000000000815260040161018f9061082e565b60405180910390fd5b6000801b6000803373ffffffffffffffffffffffffffffffffffffffff1673ffffffffffffffffffffffffffffffffffffffff16815260200190815260200160002060000154141561021f576040517f08c379a00000000000000000000000000000000000000000000000000000000081526004016102169061080e565b60405180910390fd5b6000801b6000803373ffffffffffffffffffffffffffffffffffffffff1673ffffffffffffffffffffffffffffffffffffffff16815260200190815260200160002060000154146102ff57826000803373ffffffffffffffffffffffffffffffffffffffff1673ffffffffffffffffffffffffffffffffffffffff168152602001908152602001600020600001819055503373ffffffffffffffffffffffffffffffffffffffff167f6c46eb453c5219d7665e4dda98f6200b9c6978d989806dfc2d2b17dc03609c53846040516102f691906107ca565b60405180910390a25b6000803373ffffffffffffffffffffffffffffffffffffffff1673ffffffffffffffffffffffffffffffffffffffff16815260200190815260200160002060000154915050919050565b60008060001b6000803373ffffffffffffffffffffffffffffffffffffffff1673ffffffffffffffffffffffffffffffffffffffff1681526020019081526020016000206000015414156103d2576040517f08c379a00000000000000000000000000000000000000000000000000000000081526004016103c99061080e565b60405180910390fd5b6000803373ffffffffffffffffffffffffffffffffffffffff1673ffffffffffffffffffffffffffffffffffffffff16815260200190815260200160002060000154905090565b6000816000801b811415610462576040517f08c379a00000000000000000000000000000000000000000000000000000000081526004016104599061082e565b60405180910390fd5b6000801b6000803373ffffffffffffffffffffffffffffffffffffffff1673ffffffffffffffffffffffffffffffffffffffff16815260200190815260200160002060000154141561063657826000803373ffffffffffffffffffffffffffffffffffffffff1673ffffffffffffffffffffffffffffffffffffffff16815260200190815260200160002060000181905550426000803373ffffffffffffffffffffffffffffffffffffffff1673ffffffffffffffffffffffffffffffffffffffff168152602001908152602001600020600101819055506001339080600181540180825580915050600190039060005260206000200160009091909190916101000a81548173ffffffffffffffffffffffffffffffffffffffff021916908373ffffffffffffffffffffffffffffffffffffffff1602179055503373ffffffffffffffffffffffffffffffffffffffff167f75a78c3506795933e208740942b53541acf3eb85d5ca731a904e358b120d611684426040516105e59291906107e5565b60405180910390a26000803373ffffffffffffffffffffffffffffffffffffffff1673ffffffffffffffffffffffffffffffffffffffff16815260200190815260200160002060000154915061067b565b6000803373ffffffffffffffffffffffffffffffffffffffff1673ffffffffffffffffffffffffffffffffffffffff1681526020019081526020016000206000015491505b50919050565b6001818154811061069157600080fd5b906000526020600020016000915054906101000a900473ffffffffffffffffffffffffffffffffffffffff1681565b6000813590506106cf81610912565b92915050565b6000813590506106e481610929565b92915050565b6000602082840312156106fc57600080fd5b600061070a848285016106c0565b91505092915050565b60006020828403121561072557600080fd5b6000610733848285016106d5565b91505092915050565b6107458161087a565b82525050565b6107548161088c565b82525050565b6000610767601383610869565b9150610772826108c0565b602082019050919050565b600061078a601083610869565b9150610795826108e9565b602082019050919050565b6107a9816108b6565b82525050565b60006020820190506107c4600083018461073c565b92915050565b60006020820190506107df600083018461074b565b92915050565b60006040820190506107fa600083018561074b565b61080760208301846107a0565b9392505050565b600060208201905081810360008301526108278161075a565b9050919050565b600060208201905081810360008301526108478161077d565b9050919050565b600060208201905061086360008301846107a0565b92915050565b600082825260208201905092915050565b600061088582610896565b9050919050565b6000819050919050565b600073ffffffffffffffffffffffffffffffffffffffff82169050919050565b6000819050919050565b7f4f6e6c79206578697374696e6720757365727300000000000000000000000000600082015250565b7f4f6e6c792076616c6964206e616d657300000000000000000000000000000000600082015250565b61091b8161088c565b811461092657600080fd5b50565b610932816108b6565b811461093d57600080fd5b5056fea26469706673582212208f1641f0ec33bc381cc7c3aa734eb5f24951533002b9f3363be6ffccf1dddb0864736f6c63430008030033",
  "immutableReferences": {},
  "source": "// SPDX-License-Identifier: MIT\r\npragma solidity >=0.4.16 <0.9.0;\r\n\r\ncontract Authentication {\r\n    struct User {\r\n        bytes32 name;\r\n        uint256 createdAt;\r\n    }\r\n\r\n    mapping(address => User) private users;\r\n\r\n    address[] public registered;\r\n\r\n    event UserCreated(\r\n        address indexed _address,\r\n        bytes32 _name,\r\n        uint256 _created_at\r\n    );\r\n    event UserUpdated(\r\n        address indexed _address, \r\n        bytes32 _name\r\n    );\r\n\r\n    event UserDeleted(\r\n        address indexed _address\r\n    );\r\n\r\n    // Check if user exists or terminate\r\n    modifier onlyExistingUser {\r\n        require(!(users[msg.sender].name == 0x0), \"Only existing users\");\r\n        _;\r\n    }\r\n\r\n    modifier onlyValidName(bytes32 name) {\r\n        // Only valid names allowed\r\n        require(!(name == 0x0), \"Only valid names\");\r\n        _;\r\n    }\r\n\r\n    function login() public view onlyExistingUser returns (bytes32) {\r\n        return (users[msg.sender].name);\r\n    }\r\n\r\n    function signUp(bytes32 name)\r\n        public\r\n        payable\r\n        onlyValidName(name)\r\n        returns (bytes32)\r\n    {\r\n        if (users[msg.sender].name == 0x0) {\r\n            users[msg.sender].name = name;\r\n            users[msg.sender].createdAt = block.timestamp;\r\n\r\n            registered.push(msg.sender);\r\n            emit UserCreated(msg.sender, name, block.timestamp);\r\n            return (users[msg.sender].name);\r\n        }\r\n\r\n        return (users[msg.sender].name);\r\n    }\r\n\r\n    function update(bytes32 name)\r\n        public\r\n        payable\r\n        onlyValidName(name)\r\n        onlyExistingUser\r\n        returns (bytes32)\r\n    {\r\n        // Update user name.\r\n        if (users[msg.sender].name != 0x0) {\r\n            users[msg.sender].name = name;\r\n            emit UserUpdated(msg.sender, name);\r\n        }\r\n        return (users[msg.sender].name);\r\n    }\r\n\r\n    function getRegisteredCount() public view returns(uint usersCount){\r\n        return registered.length;\r\n    }\r\n}\r\n",
  "sourcePath": "C:/Users/ricar/Projects/oer-management/contracts/Authentication.sol",
  "compiler": {
    "name": "solc",
    "version": "0.8.3+commit.8d00100c.Emscripten.clang"
  },
  "schemaVersion": "3.3.4",
  "updatedAt": "2021-05-10T15:45:20.229Z",
  "networkType": "ethereum",
  "devdoc": {
    "kind": "dev",
    "methods": {},
    "version": 1
  },
  "userdoc": {
    "kind": "user",
    "methods": {},
    "version": 1
  }
}