{
  "contractName": "ResourceManager",
  "abi": [
    {
      "inputs": [
        {
          "internalType": "address",
          "name": "",
          "type": "address"
        }
      ],
      "name": "userFiles",
      "outputs": [
        {
          "internalType": "string",
          "name": "",
          "type": "string"
        }
      ],
      "stateMutability": "view",
      "type": "function",
      "constant": true
    },
    {
      "inputs": [
        {
          "internalType": "string",
          "name": "file",
          "type": "string"
        }
      ],
      "name": "setFile",
      "outputs": [],
      "stateMutability": "nonpayable",
      "type": "function"
    }
  ],
  "bytecode": "0x608060405234801561001057600080fd5b50610567806100206000396000f3fe608060405234801561001057600080fd5b50600436106100365760003560e01c8063b0b190721461003b578063e423c1581461006b575b600080fd5b6100556004803603810190610050919061029d565b610087565b6040516100629190610340565b60405180910390f35b610085600480360381019061008091906102c6565b610127565b005b600060205280600052604060002060009150905080546100a690610448565b80601f01602080910402602001604051908101604052809291908181526020018280546100d290610448565b801561011f5780601f106100f45761010080835404028352916020019161011f565b820191906000526020600020905b81548152906001019060200180831161010257829003601f168201915b505050505081565b806000803373ffffffffffffffffffffffffffffffffffffffff1673ffffffffffffffffffffffffffffffffffffffff168152602001908152602001600020908051906020019061017992919061017d565b5050565b82805461018990610448565b90600052602060002090601f0160209004810192826101ab57600085556101f2565b82601f106101c457805160ff19168380011785556101f2565b828001600101855582156101f2579182015b828111156101f15782518255916020019190600101906101d6565b5b5090506101ff9190610203565b5090565b5b8082111561021c576000816000905550600101610204565b5090565b600061023361022e84610387565b610362565b90508281526020810184848401111561024b57600080fd5b610256848285610406565b509392505050565b60008135905061026d8161051a565b92915050565b600082601f83011261028457600080fd5b8135610294848260208601610220565b91505092915050565b6000602082840312156102af57600080fd5b60006102bd8482850161025e565b91505092915050565b6000602082840312156102d857600080fd5b600082013567ffffffffffffffff8111156102f257600080fd5b6102fe84828501610273565b91505092915050565b6000610312826103b8565b61031c81856103c3565b935061032c818560208601610415565b61033581610509565b840191505092915050565b6000602082019050818103600083015261035a8184610307565b905092915050565b600061036c61037d565b9050610378828261047a565b919050565b6000604051905090565b600067ffffffffffffffff8211156103a2576103a16104da565b5b6103ab82610509565b9050602081019050919050565b600081519050919050565b600082825260208201905092915050565b60006103df826103e6565b9050919050565b600073ffffffffffffffffffffffffffffffffffffffff82169050919050565b82818337600083830152505050565b60005b83811015610433578082015181840152602081019050610418565b83811115610442576000848401525b50505050565b6000600282049050600182168061046057607f821691505b60208210811415610474576104736104ab565b5b50919050565b61048382610509565b810181811067ffffffffffffffff821117156104a2576104a16104da565b5b80604052505050565b7f4e487b7100000000000000000000000000000000000000000000000000000000600052602260045260246000fd5b7f4e487b7100000000000000000000000000000000000000000000000000000000600052604160045260246000fd5b6000601f19601f8301169050919050565b610523816103d4565b811461052e57600080fd5b5056fea26469706673582212200d510bc5e4a6fc413360ab7428a994686d307151bd3d9763edf1832f0e3a5f3a64736f6c63430008030033",
  "immutableReferences": {},
  "source": "// SPDX-License-Identifier: MIT\r\npragma solidity >=0.4.16 <0.9.0;\r\n\r\n// contract \r\n\r\ncontract ResourceManager{\r\n    mapping (address => string) public userFiles;\r\n\r\n    function setFile(string memory file) external{\r\n        userFiles[msg.sender] = file;\r\n    }\r\n}",
  "sourcePath": "C:/Users/ricar/Projects/oer-management/contracts/ResourceManager.sol",
  "compiler": {
    "name": "solc",
    "version": "0.8.3+commit.8d00100c.Emscripten.clang"
  },
  "schemaVersion": "3.3.4",
  "updatedAt": "2021-04-14T16:39:09.631Z",
  "networkType": "ethereum",
  "devdoc": {
    "kind": "dev",
    "methods": {},
    "version": 1
  },
  "userdoc": {
    "kind": "user",
    "methods": {},
    "version": 1
  }
}