{
  "contractName": "ResourceTracker",
  "abi": [
    {
      "anonymous": false,
      "inputs": [
        {
          "indexed": false,
          "internalType": "address",
          "name": "_consumer",
          "type": "address"
        },
        {
          "indexed": true,
          "internalType": "enum ResourceTracker.Adaptation",
          "name": "_adaptationType",
          "type": "uint8"
        },
        {
          "indexed": false,
          "internalType": "string",
          "name": "_comment",
          "type": "string"
        }
      ],
      "name": "AdaptationEvent",
      "type": "event"
    },
    {
      "anonymous": false,
      "inputs": [
        {
          "indexed": false,
          "internalType": "address",
          "name": "_consumer",
          "type": "address"
        },
        {
          "indexed": false,
          "internalType": "bool",
          "name": "positive",
          "type": "bool"
        },
        {
          "indexed": false,
          "internalType": "string",
          "name": "_comment",
          "type": "string"
        }
      ],
      "name": "SocialEvent",
      "type": "event"
    },
    {
      "anonymous": false,
      "inputs": [
        {
          "indexed": false,
          "internalType": "address",
          "name": "_consumer",
          "type": "address"
        },
        {
          "indexed": true,
          "internalType": "enum ResourceTracker.Usage",
          "name": "_usageType",
          "type": "uint8"
        },
        {
          "indexed": false,
          "internalType": "string",
          "name": "_comment",
          "type": "string"
        }
      ],
      "name": "UsageEvent",
      "type": "event"
    },
    {
      "inputs": [],
      "name": "downVotes",
      "outputs": [
        {
          "internalType": "uint256",
          "name": "",
          "type": "uint256"
        }
      ],
      "stateMutability": "view",
      "type": "function",
      "constant": true
    },
    {
      "inputs": [],
      "name": "upVotes",
      "outputs": [
        {
          "internalType": "uint256",
          "name": "",
          "type": "uint256"
        }
      ],
      "stateMutability": "view",
      "type": "function",
      "constant": true
    },
    {
      "inputs": [
        {
          "internalType": "enum ResourceTracker.Usage",
          "name": "_usageType",
          "type": "uint8"
        },
        {
          "internalType": "string",
          "name": "_comment",
          "type": "string"
        }
      ],
      "name": "registerUsage",
      "outputs": [],
      "stateMutability": "nonpayable",
      "type": "function"
    },
    {
      "inputs": [
        {
          "internalType": "enum ResourceTracker.Adaptation",
          "name": "_adaptationType",
          "type": "uint8"
        },
        {
          "internalType": "string",
          "name": "_adaptationHash",
          "type": "string"
        }
      ],
      "name": "registerAdaptation",
      "outputs": [],
      "stateMutability": "nonpayable",
      "type": "function"
    },
    {
      "inputs": [
        {
          "internalType": "string",
          "name": "_comment",
          "type": "string"
        }
      ],
      "name": "upVote",
      "outputs": [],
      "stateMutability": "nonpayable",
      "type": "function"
    },
    {
      "inputs": [
        {
          "internalType": "string",
          "name": "_comment",
          "type": "string"
        }
      ],
      "name": "downVote",
      "outputs": [],
      "stateMutability": "nonpayable",
      "type": "function"
    }
  ],
  "bytecode": "0x608060405234801561001057600080fd5b506109a0806100206000396000f3fe608060405234801561001057600080fd5b50600436106100625760003560e01c80630a98593014610067578063462ff50314610085578063a1b9e1e6146100a1578063a1d9def2146100bf578063c001bc54146100db578063f71b46a9146100f7575b600080fd5b61006f610113565b60405161007c9190610721565b60405180910390f35b61009f600480360381019061009a91906105c9565b610119565b005b6100a961025b565b6040516100b69190610721565b60405180910390f35b6100d960048036038101906100d491906105c9565b610261565b005b6100f560048036038101906100f09190610521565b6103a3565b005b610111600480360381019061010c9190610575565b610419565b005b60015481565b33600015156000808373ffffffffffffffffffffffffffffffffffffffff1673ffffffffffffffffffffffffffffffffffffffff16815260200190815260200160002060009054906101000a900460ff161515146101ac576040517f08c379a00000000000000000000000000000000000000000000000000000000081526004016101a390610701565b60405180910390fd5b60016000803373ffffffffffffffffffffffffffffffffffffffff1673ffffffffffffffffffffffffffffffffffffffff16815260200190815260200160002060006101000a81548160ff0219169083151502179055506002600081548092919061021690610869565b91905055507fdd3ce15d3f660b5551619572e9a1b8ae2dc417a968873ce878c683a2b1534d783360008460405161024f93929190610693565b60405180910390a15050565b60025481565b33600015156000808373ffffffffffffffffffffffffffffffffffffffff1673ffffffffffffffffffffffffffffffffffffffff16815260200190815260200160002060009054906101000a900460ff161515146102f4576040517f08c379a00000000000000000000000000000000000000000000000000000000081526004016102eb90610701565b60405180910390fd5b60016000803373ffffffffffffffffffffffffffffffffffffffff1673ffffffffffffffffffffffffffffffffffffffff16815260200190815260200160002060006101000a81548160ff0219169083151502179055506001600081548092919061035e90610869565b91905055507fdd3ce15d3f660b5551619572e9a1b8ae2dc417a968873ce878c683a2b1534d783360018460405161039793929190610693565b60405180910390a15050565b8160018111156103dc577f4e487b7100000000000000000000000000000000000000000000000000000000600052602160045260246000fd5b7fadb7e26fa55a06d8de58d08d01f2c777f0eac8ffb8ded18317b92d01f31d9649338360405161040d9291906106d1565b60405180910390a25050565b816002811115610452577f4e487b7100000000000000000000000000000000000000000000000000000000600052602160045260246000fd5b7f24910dbd7d507c3cd71aa242e3a95529caf511c3f9e75fe60a996ace3c94c0e033836040516104839291906106d1565b60405180910390a25050565b60006104a261049d84610761565b61073c565b9050828152602081018484840111156104ba57600080fd5b6104c58482856107f6565b509392505050565b6000813590506104dc8161094a565b92915050565b6000813590506104f18161095a565b92915050565b600082601f83011261050857600080fd5b813561051884826020860161048f565b91505092915050565b6000806040838503121561053457600080fd5b6000610542858286016104cd565b925050602083013567ffffffffffffffff81111561055f57600080fd5b61056b858286016104f7565b9150509250929050565b6000806040838503121561058857600080fd5b6000610596858286016104e2565b925050602083013567ffffffffffffffff8111156105b357600080fd5b6105bf858286016104f7565b9150509250929050565b6000602082840312156105db57600080fd5b600082013567ffffffffffffffff8111156105f557600080fd5b610601848285016104f7565b91505092915050565b610613816107ae565b82525050565b610622816107c0565b82525050565b600061063382610792565b61063d818561079d565b935061064d818560208601610805565b61065681610910565b840191505092915050565b600061066e601a8361079d565b915061067982610921565b602082019050919050565b61068d816107ec565b82525050565b60006060820190506106a8600083018661060a565b6106b56020830185610619565b81810360408301526106c78184610628565b9050949350505050565b60006040820190506106e6600083018561060a565b81810360208301526106f88184610628565b90509392505050565b6000602082019050818103600083015261071a81610661565b9050919050565b60006020820190506107366000830184610684565b92915050565b6000610746610757565b90506107528282610838565b919050565b6000604051905090565b600067ffffffffffffffff82111561077c5761077b6108e1565b5b61078582610910565b9050602081019050919050565b600081519050919050565b600082825260208201905092915050565b60006107b9826107cc565b9050919050565b60008115159050919050565b600073ffffffffffffffffffffffffffffffffffffffff82169050919050565b6000819050919050565b82818337600083830152505050565b60005b83811015610823578082015181840152602081019050610808565b83811115610832576000848401525b50505050565b61084182610910565b810181811067ffffffffffffffff821117156108605761085f6108e1565b5b80604052505050565b6000610874826107ec565b91507fffffffffffffffffffffffffffffffffffffffffffffffffffffffffffffffff8214156108a7576108a66108b2565b5b600182019050919050565b7f4e487b7100000000000000000000000000000000000000000000000000000000600052601160045260246000fd5b7f4e487b7100000000000000000000000000000000000000000000000000000000600052604160045260246000fd5b6000601f19601f8301169050919050565b7f54686520757365722068617320616c726561647920766f746564000000000000600082015250565b6002811061095757600080fd5b50565b6003811061096757600080fd5b5056fea2646970667358221220362d32c279266baf894cf8b10ac37f506eed7076540f4147e9317d57205846f164736f6c63430008030033",
  "immutableReferences": {},
  "source": "// SPDX-License-Identifier: MIT\r\npragma solidity >=0.4.16 <0.9.0;\r\n\r\n\r\ncontract ResourceTracker{\r\n   \r\n    mapping (address=>bool) hasVoted;\r\n    uint public upVotes;\r\n    uint public downVotes;\r\n\r\n    enum Usage{Teaching, Learning, Research}\r\n    enum Adaptation{Enhacement, Translation}\r\n   \r\n\r\n    modifier notVoted (address _voter) { require(hasVoted[_voter] == false, \"The user has already voted\"); _;}\r\n    \r\n    // Events\r\n    event UsageEvent(address _consumer, Usage indexed _usageType, string _comment);\r\n    event AdaptationEvent(address _consumer, Adaptation indexed _adaptationType, string _comment);\r\n    event SocialEvent(address _consumer, bool positive, string _comment);\r\n\r\n    // Registro de uso\r\n    function registerUsage(Usage _usageType, string memory _comment) public{\r\n        emit UsageEvent(msg.sender, _usageType, _comment);\r\n    }\r\n\r\n    // Registro de adaptacion\r\n    function registerAdaptation(Adaptation _adaptationType, string memory _adaptationHash) public{\r\n        emit AdaptationEvent(msg.sender, _adaptationType, _adaptationHash);\r\n    }\r\n\r\n    // Registro de Votos\r\n    function upVote(string memory _comment) public notVoted(msg.sender){\r\n        hasVoted[msg.sender] = true;\r\n        upVotes++;\r\n        emit SocialEvent(msg.sender, true, _comment);\r\n    }\r\n\r\n    function downVote(string memory _comment) public notVoted(msg.sender){\r\n        hasVoted[msg.sender] = true;\r\n        downVotes++;\r\n        emit SocialEvent(msg.sender, false, _comment);\r\n    }\r\n}",
  "sourcePath": "C:/Users/ricar/Projects/oer-management/contracts/ResourceTracker.sol",
  "compiler": {
    "name": "solc",
    "version": "0.8.3+commit.8d00100c.Emscripten.clang"
  },
  "schemaVersion": "3.3.4",
  "updatedAt": "2021-05-10T15:45:20.198Z",
  "networkType": "ethereum",
  "devdoc": {
    "kind": "dev",
    "methods": {},
    "version": 1
  },
  "userdoc": {
    "kind": "user",
    "methods": {},
    "version": 1
  }
}