{
  "contractName": "ResourceList",
  "abi": [
    {
      "anonymous": false,
      "inputs": [
        {
          "indexed": false,
          "internalType": "uint256",
          "name": "fileid",
          "type": "uint256"
        },
        {
          "indexed": false,
          "internalType": "string",
          "name": "ipfshash",
          "type": "string"
        },
        {
          "indexed": false,
          "internalType": "bytes32",
          "name": "_filename",
          "type": "bytes32"
        }
      ],
      "name": "fileAdded",
      "type": "event"
    },
    {
      "anonymous": false,
      "inputs": [
        {
          "indexed": false,
          "internalType": "bytes32[5]",
          "name": "tags",
          "type": "bytes32[5]"
        }
      ],
      "name": "tagsAdded",
      "type": "event"
    },
    {
      "inputs": [
        {
          "internalType": "address",
          "name": "",
          "type": "address"
        }
      ],
      "name": "lastIds",
      "outputs": [
        {
          "internalType": "uint256",
          "name": "",
          "type": "uint256"
        }
      ],
      "stateMutability": "view",
      "type": "function",
      "constant": true
    },
    {
      "inputs": [],
      "name": "maxAmountOfFiles",
      "outputs": [
        {
          "internalType": "uint256",
          "name": "",
          "type": "uint256"
        }
      ],
      "stateMutability": "view",
      "type": "function",
      "constant": true
    },
    {
      "inputs": [
        {
          "internalType": "address",
          "name": "",
          "type": "address"
        },
        {
          "internalType": "uint256",
          "name": "",
          "type": "uint256"
        }
      ],
      "name": "resources",
      "outputs": [
        {
          "internalType": "address",
          "name": "owner",
          "type": "address"
        },
        {
          "internalType": "address",
          "name": "tracker",
          "type": "address"
        },
        {
          "internalType": "uint256",
          "name": "id",
          "type": "uint256"
        },
        {
          "internalType": "uint256",
          "name": "timestamp",
          "type": "uint256"
        },
        {
          "internalType": "bytes32",
          "name": "filename",
          "type": "bytes32"
        },
        {
          "internalType": "bytes32",
          "name": "subject",
          "type": "bytes32"
        },
        {
          "internalType": "bytes32",
          "name": "materialType",
          "type": "bytes32"
        },
        {
          "internalType": "bytes32",
          "name": "license",
          "type": "bytes32"
        },
        {
          "internalType": "bytes32",
          "name": "language",
          "type": "bytes32"
        },
        {
          "internalType": "string",
          "name": "ipfshash",
          "type": "string"
        }
      ],
      "stateMutability": "view",
      "type": "function",
      "constant": true
    },
    {
      "inputs": [
        {
          "internalType": "bytes32",
          "name": "_filename",
          "type": "bytes32"
        },
        {
          "internalType": "bytes32",
          "name": "_subject",
          "type": "bytes32"
        },
        {
          "internalType": "bytes32[5]",
          "name": "_tags",
          "type": "bytes32[5]"
        },
        {
          "internalType": "bytes32",
          "name": "_materialType",
          "type": "bytes32"
        },
        {
          "internalType": "bytes32",
          "name": "_license",
          "type": "bytes32"
        },
        {
          "internalType": "bytes32",
          "name": "_language",
          "type": "bytes32"
        },
        {
          "internalType": "string",
          "name": "_ipfsHash",
          "type": "string"
        }
      ],
      "name": "addFile",
      "outputs": [],
      "stateMutability": "nonpayable",
      "type": "function"
    },
    {
      "inputs": [
        {
          "internalType": "address",
          "name": "owner",
          "type": "address"
        },
        {
          "internalType": "uint256",
          "name": "_index",
          "type": "uint256"
        }
      ],
      "name": "getFileTags",
      "outputs": [
        {
          "internalType": "bytes32[5]",
          "name": "",
          "type": "bytes32[5]"
        }
      ],
      "stateMutability": "view",
      "type": "function",
      "constant": true
    }
  ],
  "bytecode": "0x608060405234801561001057600080fd5b506118fa806100206000396000f3fe608060405234801561001057600080fd5b50600436106100575760003560e01c806328841d8e1461005c5780638de6b8c31461008c578063a7474918146100a8578063af4ee72d146100d8578063fd6b6a0f14610111575b600080fd5b61007660048036038101906100719190610975565b61012f565b6040516100839190610bf2565b60405180910390f35b6100a660048036038101906100a191906109b1565b6101f9565b005b6100c260048036038101906100bd919061094c565b61059e565b6040516100cf9190610c0d565b60405180910390f35b6100f260048036038101906100ed9190610975565b6105b6565b6040516101089a99989796959493929190610b4f565b60405180910390f35b6101196106e6565b6040516101269190610c0d565b60405180910390f35b6101376106ec565b6000808473ffffffffffffffffffffffffffffffffffffffff1673ffffffffffffffffffffffffffffffffffffffff168152602001908152602001600020826103e881106101ae577f4e487b7100000000000000000000000000000000000000000000000000000000600052603260045260246000fd5b600f02016009016005806020026040519081016040528092919082600580156101ec576020028201915b8154815260200190600101908083116101d8575b5050505050905092915050565b60006040516102079061070e565b604051809103906000f080158015610223573d6000803e3d6000fd5b50905060006040518061016001604052803373ffffffffffffffffffffffffffffffffffffffff1681526020018373ffffffffffffffffffffffffffffffffffffffff168152602001600160003373ffffffffffffffffffffffffffffffffffffffff1673ffffffffffffffffffffffffffffffffffffffff1681526020019081526020016000205481526020014281526020018a8152602001898152602001878152602001868152602001858152602001888152602001848152509050806000803373ffffffffffffffffffffffffffffffffffffffff1673ffffffffffffffffffffffffffffffffffffffff168152602001908152602001600020600160003373ffffffffffffffffffffffffffffffffffffffff1673ffffffffffffffffffffffffffffffffffffffff168152602001908152602001600020546103e88110610398577f4e487b7100000000000000000000000000000000000000000000000000000000600052603260045260246000fd5b600f020160008201518160000160006101000a81548173ffffffffffffffffffffffffffffffffffffffff021916908373ffffffffffffffffffffffffffffffffffffffff16021790555060208201518160010160006101000a81548173ffffffffffffffffffffffffffffffffffffffff021916908373ffffffffffffffffffffffffffffffffffffffff16021790555060408201518160020155606082015181600301556080820151816004015560a0820151816005015560c0820151816006015560e0820151816007015561010082015181600801556101208201518160090190600561048992919061071b565b5061014082015181600e0190805190602001906104a792919061075b565b509050506103e8600160003373ffffffffffffffffffffffffffffffffffffffff1673ffffffffffffffffffffffffffffffffffffffff168152602001908152602001600020541061053d576000600160003373ffffffffffffffffffffffffffffffffffffffff1673ffffffffffffffffffffffffffffffffffffffff16815260200190815260200160002081905550610593565b600160003373ffffffffffffffffffffffffffffffffffffffff1673ffffffffffffffffffffffffffffffffffffffff168152602001908152602001600020600081548092919061058d90610dd8565b91905055505b505050505050505050565b60016020528060005260406000206000915090505481565b6000602052816000526040600020816103e881106105d357600080fd5b600f0201600091509150508060000160009054906101000a900473ffffffffffffffffffffffffffffffffffffffff16908060010160009054906101000a900473ffffffffffffffffffffffffffffffffffffffff169080600201549080600301549080600401549080600501549080600601549080600701549080600801549080600e01805461066390610d75565b80601f016020809104026020016040519081016040528092919081815260200182805461068f90610d75565b80156106dc5780601f106106b1576101008083540402835291602001916106dc565b820191906000526020600020905b8154815290600101906020018083116106bf57829003601f168201915b505050505090508a565b6103e881565b6040518060a00160405280600590602082028036833780820191505090505090565b6109c080610f0583390190565b826005810192821561074a579160200282015b8281111561074957825182559160200191906001019061072e565b5b50905061075791906107e1565b5090565b82805461076790610d75565b90600052602060002090601f01602090048101928261078957600085556107d0565b82601f106107a257805160ff19168380011785556107d0565b828001600101855582156107d0579182015b828111156107cf5782518255916020019190600101906107b4565b5b5090506107dd91906107fe565b5090565b5b808211156107fa5760008160009055506001016107e2565b5090565b5b808211156108175760008160009055506001016107ff565b5090565b600061082e61082984610c4d565b610c28565b9050808285602086028201111561084457600080fd5b60005b85811015610874578161085a88826108f8565b845260208401935060208301925050600181019050610847565b5050509392505050565b600061089161088c84610c73565b610c28565b9050828152602081018484840111156108a957600080fd5b6108b4848285610d33565b509392505050565b6000813590506108cb81610ebf565b92915050565b600082601f8301126108e257600080fd5b60056108ef84828561081b565b91505092915050565b60008135905061090781610ed6565b92915050565b600082601f83011261091e57600080fd5b813561092e84826020860161087e565b91505092915050565b60008135905061094681610eed565b92915050565b60006020828403121561095e57600080fd5b600061096c848285016108bc565b91505092915050565b6000806040838503121561098857600080fd5b6000610996858286016108bc565b92505060206109a785828601610937565b9150509250929050565b6000806000806000806000610160888a0312156109cd57600080fd5b60006109db8a828b016108f8565b97505060206109ec8a828b016108f8565b96505060406109fd8a828b016108d1565b95505060e0610a0e8a828b016108f8565b945050610100610a208a828b016108f8565b935050610120610a328a828b016108f8565b92505061014088013567ffffffffffffffff811115610a5057600080fd5b610a5c8a828b0161090d565b91505092959891949750929550565b6000610a778383610ae9565b60208301905092915050565b610a8c81610ced565b82525050565b610a9b81610cae565b610aa58184610cd1565b9250610ab082610ca4565b8060005b83811015610ae1578151610ac88782610a6b565b9650610ad383610cc4565b925050600181019050610ab4565b505050505050565b610af281610cff565b82525050565b610b0181610cff565b82525050565b6000610b1282610cb9565b610b1c8185610cdc565b9350610b2c818560208601610d42565b610b3581610eae565b840191505092915050565b610b4981610d29565b82525050565b600061014082019050610b65600083018d610a83565b610b72602083018c610a83565b610b7f604083018b610b40565b610b8c606083018a610b40565b610b996080830189610af8565b610ba660a0830188610af8565b610bb360c0830187610af8565b610bc060e0830186610af8565b610bce610100830185610af8565b818103610120830152610be18184610b07565b90509b9a5050505050505050505050565b600060a082019050610c076000830184610a92565b92915050565b6000602082019050610c226000830184610b40565b92915050565b6000610c32610c43565b9050610c3e8282610da7565b919050565b6000604051905090565b600067ffffffffffffffff821115610c6857610c67610e7f565b5b602082029050919050565b600067ffffffffffffffff821115610c8e57610c8d610e7f565b5b610c9782610eae565b9050602081019050919050565b6000819050919050565b600060059050919050565b600081519050919050565b6000602082019050919050565b600081905092915050565b600082825260208201905092915050565b6000610cf882610d09565b9050919050565b6000819050919050565b600073ffffffffffffffffffffffffffffffffffffffff82169050919050565b6000819050919050565b82818337600083830152505050565b60005b83811015610d60578082015181840152602081019050610d45565b83811115610d6f576000848401525b50505050565b60006002820490506001821680610d8d57607f821691505b60208210811415610da157610da0610e50565b5b50919050565b610db082610eae565b810181811067ffffffffffffffff82111715610dcf57610dce610e7f565b5b80604052505050565b6000610de382610d29565b91507fffffffffffffffffffffffffffffffffffffffffffffffffffffffffffffffff821415610e1657610e15610e21565b5b600182019050919050565b7f4e487b7100000000000000000000000000000000000000000000000000000000600052601160045260246000fd5b7f4e487b7100000000000000000000000000000000000000000000000000000000600052602260045260246000fd5b7f4e487b7100000000000000000000000000000000000000000000000000000000600052604160045260246000fd5b6000601f19601f8301169050919050565b610ec881610ced565b8114610ed357600080fd5b50565b610edf81610cff565b8114610eea57600080fd5b50565b610ef681610d29565b8114610f0157600080fd5b5056fe608060405234801561001057600080fd5b506109a0806100206000396000f3fe608060405234801561001057600080fd5b50600436106100625760003560e01c80630a98593014610067578063462ff50314610085578063a1b9e1e6146100a1578063a1d9def2146100bf578063c001bc54146100db578063f71b46a9146100f7575b600080fd5b61006f610113565b60405161007c9190610721565b60405180910390f35b61009f600480360381019061009a91906105c9565b610119565b005b6100a961025b565b6040516100b69190610721565b60405180910390f35b6100d960048036038101906100d491906105c9565b610261565b005b6100f560048036038101906100f09190610521565b6103a3565b005b610111600480360381019061010c9190610575565b610419565b005b60015481565b33600015156000808373ffffffffffffffffffffffffffffffffffffffff1673ffffffffffffffffffffffffffffffffffffffff16815260200190815260200160002060009054906101000a900460ff161515146101ac576040517f08c379a00000000000000000000000000000000000000000000000000000000081526004016101a390610701565b60405180910390fd5b60016000803373ffffffffffffffffffffffffffffffffffffffff1673ffffffffffffffffffffffffffffffffffffffff16815260200190815260200160002060006101000a81548160ff0219169083151502179055506002600081548092919061021690610869565b91905055507fdd3ce15d3f660b5551619572e9a1b8ae2dc417a968873ce878c683a2b1534d783360008460405161024f93929190610693565b60405180910390a15050565b60025481565b33600015156000808373ffffffffffffffffffffffffffffffffffffffff1673ffffffffffffffffffffffffffffffffffffffff16815260200190815260200160002060009054906101000a900460ff161515146102f4576040517f08c379a00000000000000000000000000000000000000000000000000000000081526004016102eb90610701565b60405180910390fd5b60016000803373ffffffffffffffffffffffffffffffffffffffff1673ffffffffffffffffffffffffffffffffffffffff16815260200190815260200160002060006101000a81548160ff0219169083151502179055506001600081548092919061035e90610869565b91905055507fdd3ce15d3f660b5551619572e9a1b8ae2dc417a968873ce878c683a2b1534d783360018460405161039793929190610693565b60405180910390a15050565b8160018111156103dc577f4e487b7100000000000000000000000000000000000000000000000000000000600052602160045260246000fd5b7fadb7e26fa55a06d8de58d08d01f2c777f0eac8ffb8ded18317b92d01f31d9649338360405161040d9291906106d1565b60405180910390a25050565b816002811115610452577f4e487b7100000000000000000000000000000000000000000000000000000000600052602160045260246000fd5b7f24910dbd7d507c3cd71aa242e3a95529caf511c3f9e75fe60a996ace3c94c0e033836040516104839291906106d1565b60405180910390a25050565b60006104a261049d84610761565b61073c565b9050828152602081018484840111156104ba57600080fd5b6104c58482856107f6565b509392505050565b6000813590506104dc8161094a565b92915050565b6000813590506104f18161095a565b92915050565b600082601f83011261050857600080fd5b813561051884826020860161048f565b91505092915050565b6000806040838503121561053457600080fd5b6000610542858286016104cd565b925050602083013567ffffffffffffffff81111561055f57600080fd5b61056b858286016104f7565b9150509250929050565b6000806040838503121561058857600080fd5b6000610596858286016104e2565b925050602083013567ffffffffffffffff8111156105b357600080fd5b6105bf858286016104f7565b9150509250929050565b6000602082840312156105db57600080fd5b600082013567ffffffffffffffff8111156105f557600080fd5b610601848285016104f7565b91505092915050565b610613816107ae565b82525050565b610622816107c0565b82525050565b600061063382610792565b61063d818561079d565b935061064d818560208601610805565b61065681610910565b840191505092915050565b600061066e601a8361079d565b915061067982610921565b602082019050919050565b61068d816107ec565b82525050565b60006060820190506106a8600083018661060a565b6106b56020830185610619565b81810360408301526106c78184610628565b9050949350505050565b60006040820190506106e6600083018561060a565b81810360208301526106f88184610628565b90509392505050565b6000602082019050818103600083015261071a81610661565b9050919050565b60006020820190506107366000830184610684565b92915050565b6000610746610757565b90506107528282610838565b919050565b6000604051905090565b600067ffffffffffffffff82111561077c5761077b6108e1565b5b61078582610910565b9050602081019050919050565b600081519050919050565b600082825260208201905092915050565b60006107b9826107cc565b9050919050565b60008115159050919050565b600073ffffffffffffffffffffffffffffffffffffffff82169050919050565b6000819050919050565b82818337600083830152505050565b60005b83811015610823578082015181840152602081019050610808565b83811115610832576000848401525b50505050565b61084182610910565b810181811067ffffffffffffffff821117156108605761085f6108e1565b5b80604052505050565b6000610874826107ec565b91507fffffffffffffffffffffffffffffffffffffffffffffffffffffffffffffffff8214156108a7576108a66108b2565b5b600182019050919050565b7f4e487b7100000000000000000000000000000000000000000000000000000000600052601160045260246000fd5b7f4e487b7100000000000000000000000000000000000000000000000000000000600052604160045260246000fd5b6000601f19601f8301169050919050565b7f54686520757365722068617320616c726561647920766f746564000000000000600082015250565b6002811061095757600080fd5b50565b6003811061096757600080fd5b5056fea2646970667358221220362d32c279266baf894cf8b10ac37f506eed7076540f4147e9317d57205846f164736f6c63430008030033a264697066735822122092987b707366982e536b75e7642f284e4624ca379c7656ad6a9ce0869a3bea8964736f6c63430008030033",
  "immutableReferences": {},
  "source": "// SPDX-License-Identifier: MIT\r\npragma solidity >=0.4.16 <0.9.0;\r\n\r\nimport \"./ResourceTracker.sol\";\r\n\r\ncontract ResourceList{\r\n\r\n    struct Resource{\r\n        address owner;\r\n        address tracker;\r\n        uint256 id;\r\n        uint256 timestamp;\r\n        bytes32 filename; \r\n        bytes32 subject; \r\n        bytes32 materialType;\r\n        bytes32 license; \r\n        bytes32 language;\r\n        bytes32[5] tags;\r\n        string ipfshash;\r\n    }\r\n\r\n    uint256 public constant maxAmountOfFiles = 1000;\r\n\r\n    // Owner => resources\r\n    mapping(address => Resource[maxAmountOfFiles]) public resources;\r\n\r\n    // Owner => last files id\r\n    mapping(address => uint256) public lastIds;\r\n\r\n    /// @dev main event for smart contract, needed for drizzle to update list of files\r\n    event fileAdded (uint256 fileid, string ipfshash, bytes32 _filename);\r\n    event tagsAdded (bytes32[5] tags);\r\n\r\n\r\n   function addFile(\r\n       bytes32 _filename, \r\n       bytes32 _subject, \r\n       bytes32[5] memory  _tags, \r\n       bytes32  _materialType,\r\n       bytes32  _license,\r\n       bytes32  _language,\r\n       string memory _ipfsHash\r\n       ) public {\r\n \r\n      // tracker\r\n      ResourceTracker tracker = new ResourceTracker();\r\n      \r\n      Resource memory myFile = Resource(msg.sender, address(tracker),lastIds[msg.sender], block.timestamp, _filename, _subject, _materialType, _license, _language, _tags, _ipfsHash);\r\n      // emit tagsAdded (myFile.tags);\r\n      // store new file in mapping\r\n      resources[msg.sender][lastIds[msg.sender]] = myFile;\r\n      // emit event, also need for drizzle\r\n      // emit fileAdded(lastIds[msg.sender],ipfshash,_filename);\r\n      if(lastIds[msg.sender] >= maxAmountOfFiles) lastIds[msg.sender] = 0;\r\n      else lastIds[msg.sender]++;\r\n   }\r\n   \r\n   function getFileTags(address owner, uint256 _index) external view returns (bytes32[5] memory) {\r\n       return resources[owner][_index].tags;\r\n   }\r\n\r\n}",
  "sourcePath": "C:/Users/ricar/Projects/oer-management/contracts/ResourceList.sol",
  "compiler": {
    "name": "solc",
    "version": "0.8.3+commit.8d00100c.Emscripten.clang"
  },
  "schemaVersion": "3.3.4",
  "updatedAt": "2021-05-10T15:45:20.181Z",
  "networkType": "ethereum",
  "devdoc": {
    "events": {
      "fileAdded(uint256,string,bytes32)": {
        "details": "main event for smart contract, needed for drizzle to update list of files"
      }
    },
    "kind": "dev",
    "methods": {},
    "version": 1
  },
  "userdoc": {
    "kind": "user",
    "methods": {},
    "version": 1
  }
}